:100000000C94DA010C9402020C9402020C94020289
:100010000C9402020C9402020C9402020C94020250
:100020000C9402020C9402020C9402020C94D60866
:100030000C9402020C9402020C9402020C94020230
:100040000C948C080C9402020C9402020C94020290
:100050000C9402020C9402020C9402020C94020210
:100060000C9402020C9402020101FF030101F70348
:100070006C00680000000000240027002A00000037
:100080000000250028002B000500893008023802F6
:100090004978681400000500380168010000175312
:1000A00044001613780016131400151020001520B4
:1000B0001000540A03E181867F3E186D830F0F0EF6
:1000C0000183866033186DC3198F1803C38E6033A4
:1000D000186DE330CF1803C39E603630CDE360CF98
:1000E0003006C79E7E3E30CDB360CF300CC6F66082
:1000F0003330D9B660CF33CFCCF66061B0DB1E6051
:10010000CF30D86CE6C061B0DB1E618F19986CC629
:10011000C063B19B0E330F0FB078C6FF7E1F1B0666
:100120001E0F426F786573000500680138010000FA
:10013000450068010000F6E8DBCFC3B8AEA49B928F
:100140008A827B746E68625C57524E4945413E3AE2
:100150003734312E2C29272523210A0A153A4967DD
:100160006E6F7265006D560A0A504C45415345202A
:100170005455524E204F464620004C4F5720424186
:10018000545445525921200003053F213F120812C3
:100190000A100A0E1C0E0C1E0C141A14161F161E22
:1001A000131E1E1B1E1E1F1E3F213F3A2F3A173DD6
:1001B000173F213F181F02040A041F0E04040E1FDC
:1001C0000A1F0A0E0E1F04110E2E252E2F2A2E2670
:1001D0002929021F02081F08150E04040E150E150A
:1001E000151B151B040604040C0400000000170076
:1001F0000300031F0A1F16371A1904130A153A00C1
:100200000300000E11110E000A040A040E0400304F
:10021000000404040010001804031F111F121F1013
:100220001D151711151F07041F17151D1F151D017B
:10023000011F1F151F17151F000A00003200040AB6
:10024000110A0A0A110A040115020E11171E051ED1
:100250001F150A0E110A1F110E1F15111F05010E81
:10026000111D1F041F111F1108100F1F041B1F1049
:10027000101F061F1E040F0E110E1F09060E112E51
:100280001F051A121509011F011F101F0F180F1F3C
:100290000C1F1B041B031C03191513001F1103045F
:1002A00018111F000201022020200001020C121E62
:1002B0001F120C0C12120C121F0C1A14041E05240F
:1002C0002A1E1F021C141D1020201D1F0814111FA0
:1002D000101E041E1E021C0C120C3E0A040C123EC0
:1002E0001E040214160A020F120E101E0E100E1E0D
:1002F000081E120C1226281E322A26041E21001F58
:1003000000211E040102013F213F172B1520102060
:100310004C4F4144455200172B16201314000A4E2F
:100320006F2053442063617264206F720A6E6F20E5
:100330004C4F414445522E4845580A0A153A4578D3
:100340006974001D20466C617368696E670A20201D
:100350006C6F616465722E2E2E0A0A444F4E27542C
:10036000205455524E204F464621000000000023E5
:100370000026002900040404040404040402020208
:1003800002020203030303030301020408102040D6
:10039000800102040810200102040810200000005F
:1003A0000800020100000304070000000000000034
:1003B00000006F1311241FBECFEFD8E0DEBFCDBF0A
:1003C00011E0A0E0B1E0E6EEFBE202C005900D9284
:1003D000AE32B107D9F724E0AEE2B1E001C01D9220
:1003E000A133B207E1F711E0CAEDD1E004C02197D3
:1003F000FE010E94E615C93DD107C9F70E94D20D42
:100400000C94F1150C9400004F925F926F927F92C2
:100410008F929F92AF92BF92CF92DF92EF92FF9214
:100420000F931F93CF93DF9300D000D01F92CDB7CF
:10043000DEB7409126045091270460912804709102
:1004400029042FB7F8948091940190919501A0917F
:100450009601B09197012FBF481B590B6A0B7B0B7C
:100460008091250490E0A0E0B0E00091210410917B
:100470002204209123043091240484179507A607B1
:10048000B70730F4011511052105310509F036C310
:10049000012B022B032B09F02FC38091BD03815048
:1004A0008E3F30F58091BC03813039F58091D003C7
:1004B0008F5F6091D10387FD09C0082E000C990B56
:1004C00070E06F5F7F4F0E94BE15682F6093D0036E
:1004D00087E193E090932B0480932A0488E480932F
:1004E0002C0440E060E371E08BEC93E00E942A0969
:1004F0008091BD0381508E3F70F48091BB038130A9
:1005000009F0A8C38AE093E090932B0480932A0417
:1005100088E480932C0480E00E94F20B8091CC034D
:10052000882309F4ADC08091E0038111A9C08091B6
:10053000D8039091D903E091DD03F091DE03EE0F33
:10054000FF1FE80FF91F459154914115510501F521
:100550002091DC03222331F01092DE031092DD03A0
:10056000FC0114C01092CC038091CB03882341F08E
:1005700080E00E94F20BE091DD03F091DE032FC0DA
:1005800060E08BEC93E00E9419097AC04591549188
:100590009A01369527953695279540FF51C0CA0197
:1005A00016E0969587951A95E1F78F71952F969598
:1005B0009695969590512F70223071F1F8F4211193
:1005C00017C08B3008F08AE08093E103E091DD03EF
:1005D000F091DE033196F093DE03E093DD03EE0F3E
:1005E000FF1F8091D8039091D903E80FF91FCECF58
:1005F000213061F760E00E94330CE8CF2330B1F086
:10060000243021F72091CF03829F802D11248093E5
:10061000E8039093E903DACF2091CF03829F802DE6
:1006200011248093E4039093E503D0CF2091CF036E
:10063000829F802D11248093E6039093E703C6CF19
:100640002F732093DF038091CF03859F802D11248A
:100650008093E0031092F0031092EF031092EE03E8
:1006600081E08093E20380938F011092E3038091F5
:10067000DD039091DE0301969093DE038093DD030A
:100680008091E203882309F4F3C08091E003811193
:1006900006C060E08BEC93E00E941909E9C081502C
:1006A0008093E0038091F003811148C02091EE0314
:1006B0003091EF032F5F3F4FC901880F991FE091E1
:1006C000EA03F091EB03E80FF91F65917491862F0F
:1006D00087708093F103AB01E3E056954795EA9567
:1006E000E1F7CA0196958795972F969596959093E1
:1006F000F2038F739091CF03899F802D11248093F3
:10070000F0034170409393013093EF032093EE0385
:100710008091EC0390E02817390780F02091ED03D9
:10072000222339F0821B91099093EF038093EE030B
:1007300005C060E08BEC93E00E9419098091F00302
:1007400081508093F0038091E30321E0280F2093F0
:10075000E3034091DF033091F203340F8091D7031C
:10076000380F3093CD036091E603662371F070E09B
:10077000822F022E000C990B0E94BE158091E70378
:10078000869F300D11243093CD038091CD0390E0EE
:10079000849664E270E00E94BE158093CD03309190
:1007A000E1033093CE036091E403662381F0062ECB
:1007B000000C770B822F022E000C990B0E94BE15A5
:1007C0008091E503869F300D11243093CE03609114
:1007D000E8036623A1F0822F220F990B70E00E949C
:1007E000BE15CB0162E070E00E94BE152091E903C6
:1007F0009091CE03289F900D11249093CE03809169
:10080000CE034F3341F08A300CF089E087FD80E061
:100810008093CE0302C01092CE03F894E091CD03F2
:10082000F0E0EA5CFE4FE491E09392013091CE0358
:100830002091F3033203900111244091F10342030C
:10084000C001439F900D11240090D00302C0880F77
:10085000991F0A94E2F797FF02C081589F4F880FB3
:10086000892F881F990B8093910180939001789430
:1008700080912C04882309F48DC08C3020F49CE0F6
:10088000E92EE81A01C0E12CFF24F394F092FC0356
:1008900010921404109215043091F9034DE2D42EF5
:1008A0001D2D131B1E0D03E0030F2EE4412F63E0EB
:1008B00084EF93E03D830E94B6093D810CEF030F66
:1008C0001D5F202F41E0612F80E50E94040D202F45
:1008D00042E0612F83E00E94040DF0921404F09234
:1008E00015040091F90313E0100FD01ADE0C23E079
:1008F0004D2D622F84EF93E02D830E945E092D81A0
:100900002F5F2135A9F71D0DFF24FA94F10E23E086
:100910004F2D622F84EF93E02D830E945E092D817D
:100920002F5F2135A9F7035033E0D30E402F6D2DF3
:1009300080E00E94EC0C402F6D2D83E50E94EC0CB2
:1009400041E06D2D83E00E946E0C42E06D2D80E54C
:100950000E946E0C145044E0612F80E50E946E0CE2
:1009600048E0612F83E00E946E0C84E08093FD03D9
:100970008091F903E81A8E2D815D8093FE038091AA
:100980002A0490912B040E948C0B80912C0481509E
:1009900080932C048091C2039091C303892B09F4A6
:1009A00083C011E010931404109215049091F80381
:1009B00085E5891B8093FD031092FE036091BF03C0
:1009C000613009F452C030F08091BE03653008F008
:1009D00064C05FC060E08BEC93E00E941909109244
:1009E000CC031093FC03E8E8F1E0E491EF5FE093BF
:1009F000F803E9E8F1E0E491EF5FE093F9038AE8B6
:100A000091E090931304809312041092C303109208
:100A1000C2031092FA0318EA0E9404028823E1F349
:100A20008AE791E00E948C0B4091C0035091C10372
:100A300060E070E02AE084EF93E00E94D90685E64A
:100A400091E00E948C0B612F62956F7070E084EFD3
:100A500093E00E945F0D8AE591E00E948C0B8091EB
:100A6000BB03813009F0FCC01FC080911704909136
:100A70001804A0911904B0911A048F709927AA271D
:100A8000BB270897A105B10510F467E009C068E726
:100A900007C0882349F06B5F03C0882329F06FE209
:100AA00084EF93E00E94BD060E944C0B8091FA03F4
:100AB00081110EC088EF91E0E6EAF1E0DF019C01D0
:100AC0001D9221503040E1F71092FD031092FE0379
:100AD0000E942D08609321047093220480932304C4
:100AE0009093240420911D0430911E04621B730B0B
:100AF00070931C0460931B0480E0CCC02FB7F89463
:100B00008091940190919501A0919601B0919701E7
:100B10002FBF20912504820F911DA11DB11D80932F
:100B2000260490932704A0932804B093290480916D
:100B3000170490911804A0911904B0911A04019619
:100B4000A11DB11D8093170490931804A09319045C
:100B5000B0931A04109221041092220410922304DC
:100B6000109224040E942D0860931D0470931E04AB
:100B700080931F04909320048091A7039091A80371
:100B80002FE0289F8001299F100D112485E10E94EC
:100B90001608800F911F24E0969587952A95E1F716
:100BA0009093A8038093A7032091A603222309F41E
:100BB0004BC06091AA03262F30E040E050E029832B
:100BC0003A834B835C83C090AB03D12CE12CF12C96
:100BD0004091AE035091AF034A01A12CB12C20915A
:100BE000AC033091AD032901612C712C821793075E
:100BF00028F09C014817590708F49A01C901A0E0A0
:100C0000B0E09C01AD0124193509460957096981F5
:100C10007A818B819C816C197D098E099F090E94C4
:100C2000A215A501940124193509460957090E9406
:100C30001514C20ED31EE41EF51EC092A9036C2D1E
:100C400070E085E00E94B7070E94D90A0E94950DC6
:100C500081E020C0893209F05ECC0E94BD0B5BCCE4
:100C6000115009F0D9CE60E070E085E00E94B7072E
:100C700083B7817F846083BF83B7816083BF83B77D
:100C8000816083BF889583B78E7F83BF83B78E7F54
:100C900083BFC2CE0F900F900F900F900F90DF91F7
:100CA000CF911F910F91FF90EF90DF90CF90BF9069
:100CB000AF909F908F907F906F905F904F9008952E
:100CC000CF92DF92EF92FF920F931F93CF93DF9318
:100CD0006C017A018B01C0E0D0E0CE15DF0589F010
:100CE000D8016D918D01D601ED91FC910190F081BB
:100CF000E02DC6010995892B11F47E0102C02196D1
:100D0000ECCFC701DF91CF911F910F91FF90EF9032
:100D1000DF90CF900895089580E090E008950E94BC
:100D2000EC15CF93DF9300D000D0CDB7DEB76115BF
:100D300071058105910579F09B01AC0169833A83C6
:100D40004B835C830E94071429813A814B815C812B
:100D50000E94151403C060E070E0CB010F900F906B
:100D60000F900F90DF91CF91089561157105810566
:100D7000910511F00C940C140895DC01ED91FC9197
:100D80000190F081E02D09946115710579F0FB0166
:100D900001900020E9F73197AF01461B570BDC01AA
:100DA000ED91FC910280F381E02D099480E090E0C8
:100DB00008954F925F926F927F92EF92FF920F93FE
:100DC0001F93CF93DF93CDB7DEB7A1970FB6F894FB
:100DD000DEBF0FBECDBF7C01FA01CB0119A22230CC
:100DE00008F42AE08E010F5D1F4F422E512C612C1A
:100DF000712CBF01A30192010E944714F901CA019D
:100E0000015011096A3014F4605D01C0695CD801B9
:100E10006C93232B242B252B61F7B801C7010E946B
:100E2000C406A1960FB6F894DEBF0FBECDBFDF910A
:100E3000CF911F910F91FF90EF907F906F905F90F7
:100E40004F900895833081F028F4813099F08230FA
:100E5000A1F008958730A9F08830B9F08430D1F43A
:100E6000809180008F7D03C0809180008F77809378
:100E70008000089584B58F7702C084B58F7D84BDCE
:100E800008958091B0008F7703C08091B0008F7D6E
:100E90008093B00008951F93CF93DF93282F30E005
:100EA000F901E356FC4F8491F901E757FC4FD491C7
:100EB000F901EB58FC4FC491CC23C9F0162F8111D6
:100EC0000E942207EC2FF0E0EE0FFF1FE258FF4FC9
:100ED000A591B4918FB7F894111105C09C91ED2F95
:100EE000E095E92302C0EC91ED2BEC938FBFDF91ED
:100EF000CF911F910895CF93DF9390E0FC01E757C6
:100F0000FC4F2491FC01EB58FC4F8491882361F144
:100F100090E0880F991FFC01EC58FF4FC591D491C8
:100F2000FC01E258FF4FA591B491611109C09FB730
:100F3000F8948881209582238883EC912E230BC01E
:100F4000623061F49FB7F8943881822F80958323B3
:100F50008883EC912E2B2C939FBF06C08FB7F894FB
:100F6000E8812E2B28838FBFDF91CF9108951F93A7
:100F7000CF93DF93182FEB0161E00E947B0720974E
:100F800011F460E004C0CF3FD10539F461E0812F56
:100F9000DF91CF911F910C944B07E12FF0E0E356C6
:100FA000FC4FE491E330F9F048F4E130B9F0E2307D
:100FB000A1F584B5806284BDC8BD34C0E730E9F0D6
:100FC000E83019F1E43049F5809180008062809327
:100FD0008000D0938B00C0938A0024C084B58068C1
:100FE00084BDC7BD1FC08091800080688093800051
:100FF000D0938900C093880015C08091B0008068AC
:101000008093B000C093B3000DC08091B0008062A7
:101010008093B000C093B40005C0C038D1050CF077
:10102000B5CFAFCFDF91CF911F9108958E3008F0EB
:101030008E508770806480937C0080917A008064F9
:1010400080937A0080917A0086FDFCCF80917800B1
:101050002091790090E0922B08953FB7F894809109
:10106000A2019091A301A091A401B091A50126B580
:10107000A89B05C02F3F19F00196A11DB11D3FBFD0
:10108000BA2FA92F982F8827820F911DA11DB11D5E
:10109000BC01CD0142E0660F771F881F991F4A955A
:1010A000D1F708958F929F92AF92BF92CF92DF9225
:1010B000EF92FF926B017C010E942D084B015C01B5
:1010C000C114D104E104F104F1F00E942D08DC0107
:1010D000CB0188199909AA09BB09883E9340A1054B
:1010E000B10570F321E0C21AD108E108F10888EED9
:1010F000880E83E0981EA11CB11CC114D104E10428
:10110000F10419F7DDCFFF90EF90DF90CF90BF9003
:10111000AF909F908F9008951F920F920FB60F92ED
:1011200011242F933F938F939F93AF93BF938091FD
:10113000940190919501A0919601B0919701309101
:10114000A10123E0230F2D3720F40196A11DB11D2D
:1011500005C026E8230F0296A11DB11D2093A10111
:101160008093940190939501A0939601B093970179
:101170008091A2019091A301A091A401B091A50139
:101180000196A11DB11D8093A2019093A301A0938C
:10119000A401B093A501BF91AF919F918F913F9111
:1011A0002F910F900FBE0F901F9018951F920F92C6
:1011B0000FB60F9211242F936F937F938F939F936A
:1011C00060919101662359F18091A0018F5F809316
:1011D000A00190919201891710F120918F0181E077
:1011E000282720938F011092A001809193018823DA
:1011F00069F08091010193E4899F802D1124895B1E
:10120000809301010E94B21590939001222329F04E
:10121000809190018093B40002C080E0FBCF9F9149
:101220008F917F916F912F910F900FBE0F901F9014
:101230001895FC0161110DC0178A158A14A213A21A
:10124000108E109290011092910110928F011092C5
:10125000B4000895EF92FF920F931F93CF93DF9303
:101260001F92CDB7DEB77C018B01411105C060E054
:1012700049830E941909498150E0FA01EE0FFF1FCE
:10128000EE0DFF1D16870587DA011996AA0FBB1F01
:10129000AE0DBF1D1D921C92F701E40FF51F81E0FA
:1012A000818389E0868B118E138E158E0F90DF91CE
:1012B000CF911F910F91FF90EF900895FC0164353D
:1012C00008F053C0403308F050C090A1742F7595BA
:1012D00075957595262F062E000C330B542F5770DD
:1012E0009230A1F4F901EA55FE4F84E57802E00D51
:1012F000F11D1124808190E0052E02C095958795FF
:101300000A94E2F78095982F91700AC0933041F4C7
:1013100084858170462740954170841303C014C0B2
:10132000911112C084E57802200D311D1124F901BC
:10133000EA55FE4F81E090E001C0880F5A95EAF728
:1013400080959081892310C084E57802200D311D9D
:101350001124F901EA55FE4F81E090E001C0880FA9
:101360005A95EAF79081892B80830895BF92CF9296
:10137000DF92EF92FF920F931F93CF93DF931F9211
:10138000CDB7DEB77C01D62EC42E002E000C110B7B
:10139000040F111D47FD1A954C2D0C2C000C550BFC
:1013A000401751077CF4B12CB21654F46B2D6D0D1F
:1013B0004C2DC70129830E945E09B3942981F4CF83
:1013C000C394EACF0F90DF91CF911F910F91FF90BF
:1013D000EF90DF90CF90BF9008956F927F928F92A1
:1013E0009F92AF92BF92CF92DF92EF92FF920F93B4
:1013F0001F93CF93DF93EC016A3019F42D81988508
:10140000A1C06D3009F4A4C01885BA84D98488A01D
:1014100083E58D150CF47FC08FE28B150CF47BC037
:101420008C8190E00197189F9001199F300D112435
:10143000C9018D0D911DD7FC9A95181619060CF04F
:101440006AC08D81819FC00111248B0D911DB7FC55
:101450009A95181619060CF05EC09D2CCD2CE62E20
:10146000F12CEC2DED190E2E000CFF0B8C8190E071
:10147000E817F9070CF04EC00197E817F90779F063
:10148000E89E9001E99E300DF89E300D1124E20F88
:10149000F31F8E8D9F8DE80FF91F749001C0712C82
:1014A0006B2CAB2C2A2D2B19022E000C330B8D81AB
:1014B00090E0281739075CF570FE10C0113031F448
:1014C0004A2D6C2DCE010E945E091DC0012F212FD7
:1014D000462D692DCE010E94B60915C089A198A19B
:1014E000891789F088A3113031F44A2D6C2DCE0173
:1014F0000E945E0907C0012F212F462D692DCE01C4
:101500000E94B60988A27694A394610ECBCFC394AF
:10151000910EA7CF88A228853C818985329F800DB6
:10152000112489879F81992399F0082E000C990B2B
:1015300044E550E0239F40195109112448175907E9
:101540003CF49D818A85299F800D11248A87198604
:1015500081E090E0DF91CF911F910F91FF90EF908C
:10156000DF90CF90BF90AF909F908F907F906F90C3
:10157000089520912F0430913004A9014B5F5F4FF3
:10158000481759079CF00296821793077CF0209128
:101590002D0430912E04C90105968617970734F063
:1015A0006E5F7F4F81E0621773070CF480E090E07C
:1015B0000895CF92DF92EF92FF920F931F93CF93F4
:1015C000DF93C0EBD3E007EB13E0FF24FA9497E03E
:1015D000E92EE00E62E088810E947B07288130E0DE
:1015E000F901E356FC4F8491F901E757FC4FC49091
:1015F000F901EB58FC4FD490DD2071F081110E946D
:101600002207ED2DF0E0EE0FFF1FE559FC4FA591ED
:10161000B491EC91EC21B1F4F80180818F5F80836B
:1016200060E088810E947B0721960F5F1F4FE012C8
:10163000D1CFDF91CF911F910F91FF90EF90DF906D
:10164000CF900895F8018081882371F3F8018F3FCE
:1016500011F41082E5CFF082E3CFCF93C82FF89436
:1016600060E0809103040E944B07809104041816E7
:101670001CF460E00E944B07CEBD00000DB407FED5
:10168000FDCF8EB58091040418161CF461E00E9411
:101690004B077894CF9108950F931F93CF93809128
:1016A00000048F5F8093000406EA11E0C0E08C2FF5
:1016B00080640E942D0B80E80E942D0B61E08091D8
:1016C00003040E944B078091040418161CF460E088
:1016D0000E944B0780E090E0F801E80FF91F20819D
:1016E0002EBD00000DB407FEFDCF2EB5019684354A
:1016F000910591F78091040418161CF461E00E9492
:101700004B07CF5F0C5A1F4FC63089F680E4CF914C
:101710001F910F910C942D0B0F931F93CF93DF9379
:101720008C01C0E0D0E0F801EC0FFD1F649166234E
:1017300071F0E091F403F091F5030190F081E02D58
:1017400084EF93E00995892B11F02196ECCFCE011F
:10175000DF91CF911F910F910895CF93DF930E9456
:101760008C0BEC0163E271E084EF93E00E94C4060D
:101770008C0F9D1FDF91CF91089588EF91E0E6EAED
:10178000F1E0DF019C011D9221503040E1F7109201
:10179000FD031092FE0383E493E00E948C0B0E94F1
:1017A0004C0B8CB583608CBD8DB58E7F8DBD86E274
:1017B00091E0EEEFFFE309951092FA038EE193E0DA
:1017C0000E94AD0B0E944C0B0E94D90A8091BB0372
:1017D000813039F062E370E080E090E00E945208CE
:1017E000F3CF0895CF93DF93482F50E0EA01CA5515
:1017F000DC4F9DA19923A1F19EA1911131C09EA51D
:10180000FA01EE0FFF1FE355FC4F35A126A1E32F90
:10181000F22FE90FF11DE90FF11D259134912F3FB2
:101820009FEF390711F41DA21BC039AB440F551FA0
:10183000FA01E055FC4F3327220F331F05A0F6A114
:10184000E02DE20FF31F65917491811105C040E016
:101850008BEC93E00E942A0929968DA18F5F8DA3BE
:10186000DF91CF91089570E0DB01AA0FBB1FAA554D
:10187000BC4FD4962C91D497D5969C91D597E22FB6
:10188000F92FE80FF11DE80FF11D259134915F96B6
:1018900096963C932E939597F9018591949190910A
:1018A000CF03989F802D11246A557C4FFB01B19680
:1018B00085A3F901A591B4914B2F50E0E82FF0E0FA
:1018C0004E175F0720F4F90125913491832FFB0116
:1018D000B296899F802D112485A30895AF92BF925F
:1018E000CF92DF92EF92FF920F931F93CF93DF93EC
:1018F000182F062FC1E0D3E08AEFD82E9EEFE92EF5
:10190000842F8470C82E842F8270B82E842F887004
:10191000A82E4170F42E8C2F880F8F5FE80ECC20FC
:1019200081F04D2F400F6C2F610F84EF93E00E94E8
:101930005E094C2F400F6D2F610F84EF93E00E94E2
:101940005E09BB2081F0402F4D1B6C2F610F84EF8F
:1019500093E00E945E09402F4C1B6D2F610F84EFB6
:1019600093E00E945E09AA2081F04C2F400F612F66
:101970006D1B84EF93E00E945E094D2F400F612F95
:101980006C1B84EF93E00E945E09FF2081F0402FE2
:101990004C1B612F6D1B84EF93E00E945E09402F6A
:1019A0004D1B612F6C1B84EF93E00E945E09CD17E5
:1019B00044F4E7FC04C0D150D394D394ED0CCF5F32
:1019C000AACFDF91CF911F910F91FF90EF90DF9001
:1019D000CF90BF90AF9008950F931F93CF93DF9355
:1019E000182F062FD42FC0E0CD174CF44C2F400FEA
:1019F000612F84EF93E00E945E09CF5FF5CFDF9106
:101A0000CF911F910F9108959F92AF92BF92CF9265
:101A1000DF92EF92FF920F931F93CF93DF93F82EF5
:101A2000E62EB22E03E0020FD0E0C3E08AEFC82E0C
:101A30001EEF842F8170982EAA24A394A20E4270C8
:101A4000D42EDF5F802F8B19180F992081F04C2F37
:101A5000440F4A0D6E2D6C1B8D2F8F0D0E94EC0CC8
:101A6000402F6E2D6D1B8C2F8F0D0E94EC0CDD20F6
:101A700081F04C2F440F4A0D6E2D6C1B8F2D8D1B4A
:101A80000E94EC0C402F6E2D6D1B8F2D8C1B0E9425
:101A9000EC0CDC1744F417FD04C0C150C394C3948C
:101AA0001C0D0E5FCECFDF91CF911F910F91FF9054
:101AB000EF90DF90CF90BF90AF909F900895CF921E
:101AC000DF92EF92FF920F931F93CF93DF936B01FF
:101AD000770FEE08FF08F7FE1BC0EC016DE20E94D5
:101AE000BD068C0144275527BA014C195D096E09C2
:101AF0007F092AE0CE010E94D906800F911FDF9155
:101B0000CF911F910F91FF90EF90DF90CF900895AC
:101B10002AE0B701A601DF91CF911F910F91FF90AD
:101B2000EF90DF90CF900C94D9068091C2039091F2
:101B3000C303892BB1F18091CA038F7169F584E1E8
:101B40000E941608BC01990F880B990B0E94A914DA
:101B500026EE3FE34EEC50E40E940D150E947814EF
:101B60009B017093C1036093C003672B91F084E0E5
:101B70008093BF03E2ECF3E080E0419151912417A0
:101B8000350718F48093BF0308958F5F8430A9F759
:101B900003C08FEF8093BF038091CA038F5F809350
:101BA000CA030895789484B5826084BD84B5816049
:101BB00084BD85B5826085BD85B5816085BD809118
:101BC0006E00816080936E00109281008091810090
:101BD0008260809381008091810081608093810088
:101BE000809180008160809380008091B10084604A
:101BF0008093B1008091B00081608093B0008091AB
:101C00007A00846080937A0080917A008260809369
:101C10007A0080917A00816080937A0080917A00C6
:101C2000806880937A001092C10082E3809325043B
:101C300081E090E0A0E0B0E0809321049093220442
:101C4000A0932304B09324048FEF80931604E0E85C
:101C5000F7E7259134912130304C09F049C0E6E98D
:101C6000F7E7E491E093FF03E7E9F7E7E491E09316
:101C7000AA03E8E9F7E7E491E093AB03E9E9F7E7C2
:101C8000859194919093AD038093AC03EBE9F7E7D2
:101C9000859194919093AF038093AE0388E08093F5
:101CA000D103EEE9F7E7E491E093D003EFE9F7E73A
:101CB000E491E0931604E0EAF7E78591949190931C
:101CC000C3038093C203E2EAF7E78591949190936E
:101CD000C5038093C403E4EAF7E785919491909358
:101CE000C7038093C603E6EAF7E7859194912CC079
:101CF0009CE39093FF031092AA038093AB0380E2CE
:101D000093E09093AD038093AC0384ED93E09093C4
:101D1000AF038093AE0388E08093D1038093D00318
:101D20008CEA9DE09093C3038093C2038EED9DE007
:101D30009093C5038093C40384E79EE09093C70308
:101D40008093C6038CE39FE09093C9038093C803FC
:101D5000C1E0C093A6036FEF70E085E00E94B70773
:101D600088E08093B00389E08093B10387E080939B
:101D7000B20386E08093B303D4E0D093B40382E04F
:101D80008093B50381E18093B6030E94D90A8CE366
:101D90009FE09093C1038093C003D093BF03C0938F
:101DA000CA038BE0809302048DE08093010480E1FC
:101DB000809303048EE0809305048FE080930404F5
:101DC000C093FC03C093140410921504C093FB034A
:101DD000E8E8F1E0E491EF5FE093F803E9E8F1E08F
:101DE000E491EF5FE093F9038AE891E090931304A4
:101DF00080931204CFB7F89480918A01811127C093
:101E0000EFE7F3E08491E3E9F3E09491E82FF0E069
:101E1000EE0FFF1FEC58FF4FA591B491EC91E92311
:101E200021F461E08AE00E944B0761E08AE00E94B1
:101E30007B078CB580618CBD8CB580648CBD61E006
:101E40008DE00E947B0761E08BE00E947B07809120
:101E50008A018F5F80938A01CFBF8CB58F7D8CBD47
:101E60008CB58C7F81608CBD8DB581608DBD8CB54E
:101E70008C608CBD61E0809102040E947B0761E070
:101E8000809101040E947B0761E0809103040E941D
:101E90007B078091050418161CF461E00E947B0703
:101EA0008091040418161CF461E00E947B07809165
:101EB0000504181674F460E00E944B076AE070E0B5
:101EC00080E090E00E94520861E0809105040E9449
:101ED0004B0780910104082E000C990BFC01EB5874
:101EE000FC4FE491F0E0EE0FFF1FE258FF4F259109
:101EF00034913093090420930804FC01E757FC4F08
:101F0000E491E0930F0480910204082E000C990BD9
:101F1000FC01EB58FC4FE491F0E0EE0FFF1FE2589C
:101F2000FF4F259134913093070420930604FC0160
:101F3000E757FC4FE491E0930E0480910404082ECF
:101F4000000C990BFC01EB58FC4FE491F0E0EE0F14
:101F5000FF1FE258FF4F2591349130930B042093DB
:101F60000A04FC01E757FC4FE491E09310048091D0
:101F70000304082E000C990BFC01EB58FC4FE49174
:101F8000F0E0EE0FFF1FE258FF4F259134913093A0
:101F90000D0420930C04FC01E757FC4FE491E093FF
:101FA000110481E20E942D0B84E10E942D0B80918F
:101FB000FF0387FF03C08FE78093FF038091FF0338
:101FC00080680E942D0B80E20E942D0B8CE00E9405
:101FD0002D0B0E944C0B81E08093CF0384E0809313
:101FE000F30380E790E09093DB038093DA0360E0F3
:101FF00080E00E94330C61E070E083E00E94B7074C
:102000008091B100887F81608093B100F894109234
:10201000800010928100109285001092840088E167
:1020200091E090938900809388008091810088607E
:1020300080938100809181008160809381008091F4
:102040006F00826080936F0078940E94950D80915C
:10205000BC03813019F41092D0030BC08091BF03F0
:102060008823C9F340E068E870E08BEC93E00E94BD
:102070002A0980911604882309F46AC181E08093BB
:10208000FC031092FB031092FA031092BE0380939C
:1020900014048093150432EB232E30E0332E43EBEF
:1020A000842E40E0942EC1E0DCE00E9404028823EC
:1020B000E1F3E2E2F1E08491F1018491F401A49072
:1020C00000911404082E000C990B6C01F7E0CF0E60
:1020D000D11CD7FE04C06C012EE0C20ED11C23E03F
:1020E000D594C7942A95E1F7181619060CF11092A9
:1020F000FD03D093FE0382E291E00E948C0B80915D
:10210000F803982F990F890F81958D5A8093FD03BD
:102110008091F903982F990F890F8195835D8093A2
:10212000FE038091170484FF9BC08EEA90E09AC062
:102130001A14ECF64A2D41330CF040E38535910535
:1021400014F084E590E0F090000410E026EA31E01D
:1021500091E064EB70E0A42E440FBB08DD24412F16
:1021600050E04A155B051CF6FB01E4900130B9F420
:10217000D90140E85E2D542319F05C91592B5C93F2
:1021800050E0559547954115510519F43196E49065
:1021900040E811965A2F521B581760F358C001118E
:1021A0001AC0792E7094FB01D90140E85E2D5423AA
:1021B00019F05C9157215C9350E055954795411576
:1021C000510519F43196E49040E811965A2F521BAC
:1021D000581760F33CC0033019F5592E5094FB0199
:1021E000D90140E8722E4A2E421A5E2D542341F046
:1021F0004F245C9140FE02C0592B01C055215C93D5
:1022000050E0559547954115510519F43196E490E4
:1022100040E811965A2F5719581728F3FC2617C073
:10222000FB01D90140E8542F5E2119F05C91592738
:102230005C9350E0559547954115510519F4319639
:10224000E49040E811965A2F521B581760F3990FEB
:1022500019F42C5A3F4F91E01F5F6C0D7D1D7FCF0D
:102260008AEA90E00E94AD0B8091F803982F990FB5
:10227000890F81958D5A8093FD038091FE038F5FB6
:102280008093FE038091D003882319F086EA90E0C2
:1022900002C082EA90E00E94AD0B8091F803982F73
:1022A000990F890F81958D5A8093FD038091FE03CC
:1022B0008F5F8093FE038EE990E00E94AD0B8091CA
:1022C000BC038130C9F48091D0038F5F6091D1034A
:1022D00087FD09C0082E000C990B70E06F5F7F4FDF
:1022E0000E94BE15682F6093D00340E060E371E068
:1022F0008BEC93E00E942A098091BB038130B9F0F6
:1023000080911604482F50E060E070E000911704BF
:10231000109118042091190430911A04041715071C
:102320002607370708F49BC18F3F09F498C18FEF48
:102330008093160460E08BEC93E00E9419091092E0
:10234000CC0340E066E970E08BEC93E00E942A0940
:102350001092BE03C0E3D1E060912E0170912F0175
:10236000072E000C880B990B0E94B50680912E0158
:1023700090912F01019690932F0180932E0162E599
:1023800070E080E090E00E9491067B836A83609118
:102390002E0170912F01072E000C880B990B0E94C3
:1023A000B50680912E0190912F01019690932F01F7
:1023B00080932E016EE270E080E090E00E94910632
:1023C0007F836E8360912E0170912F01072E000C88
:1023D000880B990B0E94B50680912E0190912F01D8
:1023E000019690932F0180932E016DE170E080E0C3
:1023F00090E00E949106DC01CB010196A11DB11D68
:102400009983888360912E0170912F01072E000C13
:10241000880B990B0E94B50680912E0190912F0197
:10242000019690932F0180932E016DE170E080E082
:1024300090E00E949106DC01CB010196A11DB11D27
:102440009D838C832996F1E0CA38DF0709F084CF99
:102450009AE0E92EF12C22E0222E312C34E0432E9A
:10246000512CCC24C394D12C53E0A52EB12C81E562
:10247000682E712C0E940402882309F4E8C0809120
:10248000000160918D0170918E01882309F4D9C0FB
:1024900084EF93E00E945F0D8091BA0381508E3FDC
:1024A00008F4E5C08091B90381508E3F08F4EDC077
:1024B0008091B80381508E3F08F4F5C08091B70336
:1024C00081508E3F08F4FDC08091BB038F3F61F4C3
:1024D00080912F049091300418161906E4F110929F
:1024E000300410922F0437C091E0883E08F490E049
:1024F00028EE929F80191124813051F740912D04CC
:10250000415060912F04615005E025E084EF93E095
:102510000E94B60940E068E271E08BEC93E00E9413
:102520002A09C0E3D1E06E817F818A819B810E946C
:10253000B90A892B51F0188680918D0190918E01F6
:10254000019690938E0180938D01299681E0CA387F
:10255000D80749F7BDCF80912D0490912E0418160D
:10256000190624F010922E0410922D0480912F044D
:10257000909130048135910524F07092300460927E
:102580002F0480912D0490912E048D9734F0EDE26C
:10259000F0E0F0932E04E0932D0403E023E040915B
:1025A0002D0460912F0484EF93E00E94B609C0E3EC
:1025B000D1E08885882391F002E022E04E816A8193
:1025C00084EF93E00E94B6096E817F818A819B81AE
:1025D0000E94B90A892B11F010920001888099801D
:1025E000C401B7010E94BE158A819B81FB01E80FDF
:1025F000F91FFB83EA830C811D81C801B7010E948A
:10260000BE152E813F81260F371F3F832E833197C2
:10261000E235F10528F0919481949108998288829D
:10262000215031092E32310528F0119501951109FB
:102630001D830C832996F1E0CA38DF0709F0B9CF72
:1026400006C06E5E7E4F84EF93E00E94C40680E079
:1026500090E0892B09F40ECF0E94000008CF8091F2
:10266000BD03813009F021CD0E94BD0B1CCD8091AE
:102670002D0490912E04019690932E0480932D04A6
:1026800030928C0120928B010DCF80912F0490917C
:10269000300401969093300480932F0450928C0163
:1026A00040928B0105CF80912D0490912E040197CB
:1026B00090932E0480932D04D0928C01C0928B01B4
:1026C000FDCE80912F0490913004019790933004B7
:1026D00080932F04B0928C01A0928B01F5CE1092C2
:1026E000F7031092F6038AE091E09093F50380934C
:1026F000F40380E090E021E0FC01E05DFE4F2087E4
:1027000009968A359105C1F70E94071424E630E046
:1027100040E050E00E94151470932F0160932E0149
:1027200061E370E080E090E00E9491066F5F7F4F70
:102730008F4F9F4F0E94A91460939C0170939D013D
:1027400080939E0190939F0161E370E080E090E0B0
:102750000E9491066F5F7F4F8F4F9F4F0E94A91479
:10276000609398017093990180939A0190939B01D3
:1027700008958F929F92AF92BF92CF92DF92EF9285
:10278000FF92CF93DF93EC01688179818A819B81ED
:10279000611571058105910521F464E279ED8BE500
:1027A00097E02DE133EF41E050E00E94151449011C
:1027B0005A019B01AC01A7EAB1E40E9434146B01F9
:1027C0007C01ACEEB4EFA50194010E944214DC013F
:1027D000CB018C0D9D1DAE1DBF1DB7FF03C0019722
:1027E000A109B04888839983AA83BB83BC01CD012A
:1027F0009F77DF91CF91FF90EF90DF90CF90BF90C8
:10280000AF909F908F9008950E94B913089582E031
:1028100091E00E94B913089560930201709303013F
:1028200080930401909305010895052E97FB1EF4F3
:1028300000940E942C1457FD07D00E94471407FCF7
:1028400003D04EF40C942C1450954095309521955E
:102850003F4F4F4F5F4F08959095809570956195CC
:102860007F4F8F4F9F4F08950E946914A59F900D31
:10287000B49F900DA49F800D911D11240895B7FF62
:102880000C9434140E943414821B930B0895A1E21B
:102890001A2EAA1BBB1BFD010DC0AA1FBB1FEE1FDA
:1028A000FF1FA217B307E407F50720F0A21BB30B25
:1028B000E40BF50B661F771F881F991F1A9469F7A1
:1028C00060957095809590959B01AC01BD01CF01FD
:1028D0000895A29FB001B39FC001A39F700D811DF9
:1028E0001124911DB29F700D811D1124911D089519
:1028F0000E94EC1488F09F5798F0B92F9927B75190
:10290000B0F0E1F0660F771F881F991F1AF0BA9593
:10291000C9F714C0B13091F00E940615B1E00895D6
:102920000C940615672F782F8827B85F39F0B93FC8
:10293000CCF3869577956795B395D9F73EF4909546
:102940008095709561957F4F8F4F9F4F0895E894C4
:1029500009C097FB3EF490958095709561957F4FE7
:102960008F4F9F4F9923A9F0F92F96E9BB27939595
:10297000F695879577956795B795F111F8CFFAF4A5
:10298000BB0F11F460FF1BC06F5F7F4F8F4F9F4FD6
:1029900016C0882311F096E911C0772321F09EE834
:1029A000872F762F05C0662371F096E8862F70E09A
:1029B00060E02AF09A95660F771F881FDAF7880F74
:1029C0009695879597F9089557FD9058440F551F90
:1029D00059F05F3F71F04795880F97FB991F61F0A1
:1029E0009F3F79F087950895121613061406551F18
:1029F000F2CF4695F1DF08C0161617061806991F84
:102A0000F1CF86957105610508940895E894BB2778
:102A100066277727CB0197F908950E9420150C941B
:102A200091150E94831538F00E948A1520F0952395
:102A300011F00C947A150C94801511240C94071540
:102A40000E94E41470F3959FC1F3950F50E0551F59
:102A5000629FF001729FBB27F00DB11D639FAA27F3
:102A6000F00DB11DAA1F649F6627B00DA11D661F42
:102A7000829F2227B00DA11D621F739FB00DA11D63
:102A8000621F839FA00D611D221F749F3327A00D1D
:102A9000611D231F849F600D211D822F762F6A2FB9
:102AA00011249F5750409AF0F1F088234AF0EE0F1E
:102AB000FF1FBB1F661F771F881F91505040A9F74B
:102AC0009E3F510580F00C947A150C9407155F3FDA
:102AD000E4F3983ED4F3869577956795B795F79587
:102AE000E7959F5FC1F7FE2B880F911D96958795FF
:102AF00097F9089597F99F6780E870E060E008957E
:102B00009FEF80EC089500240A9416161706180605
:102B10000906089500240A941216130614060506E1
:102B20000895092E0394000C11F4882352F0BB0F72
:102B300040F4BF2B11F460FF04C06F5F7F4F8F4FD5
:102B40009F4F0895DB018F939F930E943414BF9190
:102B5000AF91A29F800D911DA39F900DB29F900DEC
:102B600011240895991B79E004C0991F961708F065
:102B7000961B881F7A95C9F78095089597FB072EB5
:102B800016F4009407D077FD09D00E94D21507FCF7
:102B900005D03EF4909581959F4F0895709561956D
:102BA0007F4F0895AA1BBB1B51E107C0AA1FBB1F83
:102BB000A617B70710F0A61BB70B881F991F5A95C9
:102BC000A9F780959095BC01CD010895EE0FFF1FE8
:102BD0000590F491E02D099481E090E0F8940C9434
:062BE000F115F894FFCF8F
:102BE60001010100000000000000ED0960068C06EE
:102BF6008B06594F55204C4F53542C2053434F525C
:0E2C0600453A000D0A004C4F41444552000073
:00000001FF
